:020000040800F2
:10000000F0320020A1020008D9070008C507000847
:10001000D5070008BF070008150900080000000008
:10002000000000000000000000000000E1010008E6
:10003000C3070008000000003D020008DD070008BB
:10004000BB020008BB020008BB020008BB0200089C
:10005000BB020008BB020008BB020008BB0200088C
:10006000BB020008BB020008BB020008BB0200087C
:10007000BB020008BB020008BB020008BB0200086C
:10008000BB020008BB020008BB020008BB0200085C
:10009000BB020008BB020008BB020008BB0200084C
:1000A000BB020008BB020008BB020008BB0200083C
:1000B000BB020008BB020008BB020008BB0200082C
:1000C000BB020008BB020008BB020008BB0200081C
:1000D000BB020008BB020008BB020008BB0200080C
:1000E000BB020008BB020008BB020008BB020008FC
:1000F000BB020008BB020008BB020008BB020008EC
:10010000BB020008BB020008BB020008BB020008DB
:1001100061080008BB020008BB020008BB0200081F
:10012000BB020008BB020008BB020008BB020008BB
:1001300000F002F800F044F80AA090E8000C8244B5
:100140008344AAF10107DA4501D100F039F8AFF292
:10015000090EBAE80F0013F0010F18BFFB1A43F0A5
:10016000010318472832000048320000103A24BF2B
:1001700078C878C1FAD8520724BF30C830C144BF0C
:1001800004680C607047000000230024002500264E
:10019000103A28BF78C1FBD8520728BF30C148BFEA
:1001A0000B607047642900F00D81732900F04F82C5
:1001B000002070471FB503F0E3F81FBD10B510BD58
:1001C00000F0C4FA1146FFF7F5FF00F089FE00F0D9
:1001D000E2FA03B4FFF7F2FF03BC00F0E9FA000013
:1001E0002C4B19680868B0E8F04F80F30988BFF31A
:1001F0006F8F4FF0000080F31188704700000000FF
:1002000008480068006880F308884FF0000080F319
:10021000148862B661B6BFF34F8FBFF36F8F00DFF4
:1002200000BF00BF08ED00E0DFF80C00016841F4FA
:1002300070010160704700BF88ED00E0EFF30980B6
:10024000BFF36F8F134B1A681EF0100F08BF20ED1D
:10025000108A20E9F04F106009B44FF0200080F3BD
:100260001188BFF34F8FBFF36F8F02F051FB4FF038
:10027000000080F3118809BC19680868B0E8F04FE5
:100280001EF0100F08BFB0EC108A80F30988BFF38E
:100290006F8F704740000020EFF30580704700002B
:1002A0000948804709480047FEE7FEE7FEE7FEE70A
:1002B000FEE7FEE7FEE7FEE7FEE7FEE70448054946
:1002C000054A064B7047000011080008310100087C
:1002D000F02A0020F0320020F02E0020F02E002026
:1002E0000FB41CB5074B06AA7B44694600900598DD
:1002F00000F083F90020694600F092F91CBC5DF81B
:1003000014FB0000350300002DE9F0410E460446C1
:10031000002020622046E168884730B3252805D0B8
:10032000D4E901219047206A401CF2E7E1682046A9
:1003300000278847050018D0A5F14100192802D8E8
:1003400020354FF400673246294620462760FFF7E4
:1003500029FF40B1012804D0F61D26F00706083613
:10036000D8E7361DD6E72846DAE7206ABDE8F081EF
:1003700070B50C460546012A05D02878800600D5C0
:10038000EA69002302E0012305E05B1C934202D2EC
:10039000E05C0028F9D1A869E618C01AA861286AAB
:1003A000184428622846AFF3008004E0D5E9012113
:1003B00014F8010B9047B442F8D32846AFF30080FD
:1003C00070BD00002DE9F041064600241068752933
:1003D000314616A510D0AFF30080002802DA404263
:1003E00013A507E031688A0701D512A502E0490785
:1003F00004D511A5012401E0AFF3008000210A22F9
:1004000006F1240709E0B0FBF2FCB0FBF2F302FBBB
:100410001C00303078541846491C0028F3D123467C
:100420002A463046BDE8F04100F089B800000000DF
:100430002D0000002B0000002000000030B5054614
:100440000B462A4613F8014B12F8010B08B1A042E3
:10045000F8D01CB1002802D06D1CF1E7284630BD51
:1004600010B5431C02E010F8011B71B18107FAD1ED
:100470004FF0013202C88C1A8C4314EAC211F9D031
:10048000C01A0A0603D0C01E10BDC01A10BD0A044F
:1004900001D0801E10BD0902FCD0401E10BD032AF1
:1004A00040F2308010F0030C00F0158011F8013B91
:1004B000BCF1020F624498BF11F801CB00F8013B78
:1004C00038BF11F8013BA2F1040298BF00F801CB3C
:1004D00038BF00F8013B11F0030300F0BC80083A7C
:1004E000C0F0088051F8043B083A51F804CBA0E86A
:1004F0000810F5E7121D5CBF51F8043B40F8043BBF
:10050000AFF30080D20724BF11F8013B11F801CBF3
:1005100048BF11F8012B24BF00F8013B00F801CBC4
:1005200048BF00F8012B704702F0FF0343EA0322A3
:1005300042EA024200F0C3B87047704770472DE9A5
:10054000F0470D4699469246044600F1240801689A
:10055000880604D5E06921F01001216000E0012047
:10056000A84201DD471B00E00027A1697A1902EBD0
:100570000900081AA0612078C00602D42046AFF313
:100580000080002608E0D4E901211AF8060090470F
:10059000206A401C761C20624E45F4DB2078C006A1
:1005A0000AD52046AFF3008006E0D4E901213020CF
:1005B0009047206A401C2062381EA7F10107F4DC36
:1005C00007E0D4E9012118F805009047206A401C93
:1005D0002062281EA5F10105F3DC2046AFF3008060
:1005E0002078000602D50220BDE8F0870120FBE755
:1005F00001694A1C02610878704700B58FB0CDE9E7
:1006000001310021059105497944CDE903101146D6
:100610006846FFF779FE0FB000BD0000E5FFFFFF61
:100620000A6802F8010B0A60704710B5436913B1FC
:10063000AFF3008001E0FFF79BFE012010BD1278B0
:1006400000F124010A7000224A700122EDE71168CE
:100650004FF0FF32E9E710B5203AC0F00B80B1E867
:100660001850203AA0E81850B1E81850A0E81850E7
:10067000BFF4F5AF5FEA027C24BFB1E81850A0E8F0
:10068000185044BF18C918C0BDE810405FEA827C0A
:1006900024BF51F8043B40F8043B08BF7047D20721
:1006A00028BF31F8023B48BF11F8012B28BF20F8C2
:1006B000023B48BF00F8012B70474FF000020429AD
:1006C000C0F0128010F0030C00F01B80CCF1040C81
:1006D000BCF1020F18BF00F8012BA8BF20F8022BB5
:1006E000A1EB0C0100F00DB85FEAC17C24BF00F85B
:1006F000012B00F8012B48BF00F8012B70474FF089
:10070000000200B5134694469646203922BFA0E861
:100710000C50A0E80C50B1F12001BFF4F7AF09076D
:1007200028BFA0E80C5048BF0CC05DF804EB89005E
:1007300028BF40F8042B08BF704748BF20F8022BA1
:1007400011F0804F18BF00F8012B7047754600F07C
:100750002BF8AE4605006946534620F00700854653
:1007600018B020B5FFF7AAFDBDE820404FF0000605
:100770004FF000074FF000084FF0000B21F0070189
:10078000AC46ACE8C009ACE8C009ACE8C009ACE8CC
:10079000C0098D46704710B50446AFF3008020466F
:1007A000BDE81040FFF715BD00487047902A0020B3
:1007B00001491820ABBEFEE726000200704700BFCB
:1007C000FEE7704700BFFEE710B501F099FC00F0AE
:1007D0000FF910BD00BFFEE77047000010B500BF65
:1007E000202080F31188BFF34F8FBFF36F8F00BFBE
:1007F00002F06CFB18B14FF080500449086000BF54
:10080000002080F3118800BF10BD000004ED00E05F
:1008100010B51048006840F470000E4908600E489A
:10082000006840F001000C49086000204860C86280
:100830000846006809490840074908604FF41F004E
:1008400088600846006820F48020086001F054FCAD
:1008500010BD000088ED00E000100240FFFFF6FE32
:1008600010B52649264801F03EFD012841D1244813
:1008700001F0F2FCC2B2234801780078401C214B01
:1008800018702148425418460078642802D100208C
:10089000194608701B480078401E1B49085C0D284B
:1008A0001FD10A220B46174C24781A55002005E068
:1008B000154A125C154B1A54421CD0B2114A1278D8
:1008C0009042F5DD002104E000220F4B1A544A1C2F
:1008D000D1B20C4A12789142F6DD0022094B1A700F
:1008E00000BF01200A4908700449054801F0EEFCE8
:1008F00002E000200649087010BD00000503050055
:10090000004C00401000002098000020FC00002057
:100910001100002000BFFEE710B5002804DB0A0725
:10092000130E054A135406E00A07140E034A00F09A
:100930000F031B1FD45410BD00E400E018ED00E0CD
:1009400010B504460A48007878B121460948FFF7F7
:1009500075FD50B1002104E00020064A5054481CA7
:10096000C1B26329F8DD012010BD0020FCE70000C2
:1009700011000020FC00002070B505460C46032045
:1009800000F05CF8284600F07FF84FF47A7060437E
:100990004FF47A71B0FBF1F6304601F057FE28466D
:1009A00000F04CF84FF47A7060434FF47A71B0FB6A
:1009B000F1F6304601F04AFE284600F065F84FF4A3
:1009C0007A7060434FF47A71B0FBF1F6304601F073
:1009D0003DFE284600F032F84FF47A7060434FF441
:1009E0007A71B0FBF1F6304601F030FE70BD0000C8
:1009F00010B540F2026001F0E7FA4FF48073032271
:100A000010210C4800F08AF94FF48071094800F079
:100A100083F940F2046001F0D7FA4FF440730322E7
:100A20001021054800F07AF94FF44071024800F0B7
:100A300073F910BD000801400010014010B50446D4
:100A40002CB94FF480710E4800F066F917E0012CC4
:100A500004D161020A4800F05FF910E0022C04D1D1
:100A6000E101084800F058F909E04FF440710448EA
:100A700000F052F94FF48071024800F04DF910BDBA
:100A8000001001400008014010B504462CB94FF495
:100A900080710E4800F03EF917E0012C04D161028C
:100AA0000A4800F037F910E0022C04D1E1010848AF
:100AB00000F030F909E04FF44071044800F02AF9E1
:100AC0004FF48071024800F025F910BD001001407C
:100AD0000008014070B504460020FFF7D5FF4FF431
:100AE0007A7060434FF47A71B0FBF1F5284601F05B
:100AF000ADFD0320FFF7A2FF0120FFF7C5FF4FF474
:100B00007A7060434FF47A71B0FBF1F5284601F03A
:100B10009DFD0320FFF792FF0220FFF7B5FF4FF482
:100B20007A7060434FF47A71B0FBF1F5284601F01A
:100B30008DFD0320FFF782FF0020FFF7A5FF4FF494
:100B40007A7060434FF47A71B0FBF1F5284601F0FA
:100B50007DFD0320FFF772FF0120FFF795FF4FF4A3
:100B60007A7060434FF47A71B0FBF1F5284601F0DA
:100B70006DFD0320FFF762FF0220FFF785FF4FF4B2
:100B80007A7060434FF47A71B0FBF1F5284601F0BA
:100B90005DFD0320FFF752FF70BD000000BF4FF462
:100BA0000041574800F00CF9002839D100BF4FF43C
:100BB0000041534800F004F90028F8D0514800786B
:100BC000401C5049087008460078062823D2DFE808
:100BD00000F02203090F15194FF4FA710020FFF7F6
:100BE000CBFE1CE04FF4FA710120FFF7C5FE16E0C2
:100BF0004FF4FA710220FFF7BFFE10E0C820FFF7A4
:100C000069FF0CE001203F4908704FF4FA710020A1
:100C1000FFF7B2FE03E00320FFF710FF00BF00BFA5
:100C20004FF48051384800F0CBF8002863D100BF62
:100C30004FF48051344800F0C3F80028F8D033480E
:100C40000078401C314908700846007806284DD2CB
:100C5000DFE800F04C03111F2D3B0020FFF714FFCD
:100C60004FF4FA7001F0F2FC0020FFF7E7FE0F20CE
:100C7000274908603EE00120FFF706FF4FF4FA70B5
:100C800001F0E4FC0120FFF7D9FE1E202049086096
:100C900030E00220FFF7F8FE4FF4FA7001F0D6FCC6
:100CA0000220FFF7CBFE3C201949086022E0032018
:100CB000FFF7EAFE4FF4FA7001F0C8FC0320FFF7DB
:100CC000BDFE78201249086014E001200F49087029
:100CD0000020FFF7D9FE4FF4FA7001F0B7FC0020B6
:100CE000FFF7ACFE0F200A49086003E00320FFF77E
:100CF000A5FE00BF00BF322001F0A8FC4FE70000B6
:100D00000008014000000020001001400100002008
:100D1000080000204161704701617047F0B50C4642
:100D200016460025002204F00F0504F0100747B115
:100D3000042E05D145F00305C76B1F43C76300E0D0
:100D40003543002118E001278F401F4097B102680A
:100D50004FEA810C0F2707FA0CF7BA438F0005FA08
:100D600007F73A43282C01D1436102E0482C00D117
:100D7000036102604F1CB9B20829E4D308211CE0CA
:100D800001278F401F40B7B14268A1F108074FEA21
:100D9000870C0F2707FA0CF7BA43A1F10807BF0029
:100DA00005FA07F73A43282C01D1436102E0482CA9
:100DB00000D1036142604F1CB9B21029E0D3F0BDED
:100DC00002469068084008B1012070470020FCE707
:100DD00000BF2B480068401C294908602949096860
:100DE000884247D900202649086027480078012812
:100DF00006D0022810D003281AD004282ED123E0D0
:100E0000002406E04FF4FA710020FFF7B5FD601CE6
:100E1000C4B2052CF6DB22E0002406E04FF4FA71A0
:100E20000120FFF7A9FD601CC4B2052CF6DB16E01B
:100E3000002406E04FF4FA710220FFF79DFD601CCC
:100E4000C4B2052CF6DB0AE0002404E0C820FFF75A
:100E500041FE601CC4B2052CF8DB00E000BF00BFFF
:100E60000AA30DA20121002000F092F901210AA09D
:100E700000F0DAF94FF47A7001F0E8FBA9E700001E
:100E800004000020080000200000002078696E2087
:100E90006368616F2E2E2E006C697879746F7069AB
:100EA0006300000000BFC820FFF714FE01F050F9F6
:100EB00000221146342000F0F9F940F205310548CE
:100EC00001F0F7F904A1034801F041FA002001F014
:100ED000EBFBE8E7004C004041540D0A0000000025
:100EE0001CB5FFF771FC0020042103464FF49172FA
:100EF000CDE9001014A1194801F0A2FF0020032140
:100F000003464FF49172CDE9001015A1194801F084
:100F100097FF0020022103464FF49172CDE90010A3
:100F200015A1184801F08CFF0020022103464FF460
:100F30009172CDE9001014A1174801F081FF01F072
:100F400091FC00BFFEE700004C65645F7461736B49
:100F50005F77656C636F6D6500000000A50E00088B
:100F60006E656F7761795F7461736B5F696E6974C9
:100F7000000000009D12000862746E5F7461736B64
:100F8000000000009D0B00086C65645F7461736B6A
:100F90005F616C61726D0000D10D000870B59AB090
:100FA00004460D4616462B46224605A101A800968A
:100FB000FFF796F901A9094801F0C9F91AB070BD07
:100FC00041542B4D515454434F4E4E3D22257322D4
:100FD0002C25642C25640D0A00000000004C004004
:100FE00010B506E046A1484801F0B1F9C82001F06B
:100FF0002DFB46A0FFF7A4FC0028F3D0C821002059
:10100000FFF7BAFC06E042A13F4801F0A0F9C82072
:1010100001F01CFB41A0FFF793FC0028F3D0C8218E
:101020000120FFF7A9FC06E03EA1374801F08FF947
:10103000C82001F00BFB3EA0FFF782FC0028F3D193
:10104000C8210220FFF798FC06E03CA12E4801F0E1
:101050007EF9C82001F0FAFA3BA0FFF771FC20B935
:101060003AA0FFF76DFC0028EFD0C8210020FFF761
:1010700083FC06E036A1244801F069F9C82001F09C
:10108000E5FA22A0FFF75CFC0028F3D0C82101207C
:10109000FFF772FC06E031A11B4801F058F9C820A7
:1010A00001F0D4FA19A0FFF74BFC0028F3D0C821B7
:1010B0000220FFF761FC07E012A212A12AA000F0B3
:1010C0008DF8C82001F0C2FA10A0FFF739FC002803
:1010D000F2D0C8210020FFF74FFC07E03C2200219E
:1010E00026A0FFF75BFFC82001F0B0FA07A0FFF7CA
:1010F00027FC0028F2D0C8210120FFF73DFC10BDDD
:1011000041540D0A00000000004C00404F4B00000D
:1011100041542B4350494E3F0D0A00005245414473
:101120005900000041542B4353510D0A00000000A8
:101130002B4353513A2039392C39390041542B4330
:10114000455245473F0D0A00302C3100302C350008
:1011500041542B584949433D310D0A0041542B5805
:101160004949433F0D0A00006D717474785F31384E
:1011700031393230333433380000000039312E3108
:1011800032312E39332E39343A31383833000000B9
:10119000F0B59BB004460D4616461F462B46224628
:1011A00005A102A8CDE90067FFF79AF802A90A484D
:1011B00001F0CDF81BB0F0BD41542B4D51545450AB
:1011C00055423D25642C25642C222573222C222592
:1011D00073220D0A00000000004C004070B59AB068
:1011E00004460D4616462B46224605A101A8009648
:1011F000FFF776F801A90B4801F0A9F81AB070BD05
:1012000041542B4D515454434F4E4E504152414D39
:101210003D222573222C222573222C222573220D98
:101220000A000000004C004030B599B004460D465D
:101230000DE02B4622460CA16846FFF751F869469F
:101240000F4801F084F8142001F000FA00BF0DA04F
:10125000FFF776FB0028ECD00B4B0CA201210020FD
:10126000FFF796FF19B030BD41542B4D51545453E4
:1012700055423D222573222C2025640D0A000000D2
:10128000004C00404F4B0000980000206E65775FD7
:10129000746F7069635F6C697879000000BFFFF755
:1012A0009FFE002001F000FAF9E700002DE9F0416F
:1012B00003460D46164600240027A0462A4800682B
:1012C00000F4E060B0F5E06F03D100BF4FF0040818
:1012D00030E02548006800F4E060B0F5C06F03D14D
:1012E00001274FF0030825E01F48006800F4E06084
:1012F000B0F5A06F02D10227B8461BE01A4800687B
:1013000000F4E060B0F5806F03D103274FF00108CF
:1013100010E01548006800F4E060B0F5407F03D1AC
:1013200004274FF0000805E04FF4A06000F020F81B
:101330000227B846C7F1040005FA00F4C8F1040119
:101340000F20C8403040044324010848C45403F02F
:101350001F01012088405911890001F1E021C1F8E5
:101360000001BDE8F08100000CED00E000E400E0C9
:1013700002490143024A1160704700000000FA056B
:101380000CED00E02DE9F04105460E4626480768C1
:1013900026480068001D01F002F850B92348006893
:1013A00090F82C1001208840214909688143204889
:1013B0000160681CD8B9D6B11E4948681B49096844
:1013C00088601A4982680968CA6018490968091D55
:1013D0008268516015490968091D8160154A1349E1
:1013E00009684A6111460968491C11601AE07C19B4
:1013F0000E4800684460BC4207D20C480168091DD1
:101400000D48006800F0F8FF0CE008480168091D6D
:101410000A48006800F0F0FF09480068844201D2E1
:1014200007480460BDE8F08154000020400000201F
:1014300058000020142A002048000020440000200A
:101440007000002010B5044600F0FCFF3148006831
:10145000401C304908603048006840B92E4804609C
:101460000846006801280DD100F0C2F90AE02B48B7
:10147000006838B928480068C06AE16A884201D823
:101480002548046026480068401C25490860084635
:101490000068A06494F82C10012088402149096854
:1014A000084320490860E16A01EB81011E4A02EB12
:1014B00081014868A0608268E260211D82685160F5
:1014C0008160E16A01EB8101174A02EB81026261EE
:1014D000E16A01EB8101144A52F82110491CE26AC9
:1014E00002EB8202104B43F8221000F0D5FF0B48AC
:1014F000006868B108480068C06AE16A884207D29B
:101500004FF0805009490860BFF34F8FBFF36F8FD2
:1015100010BD000050000020400000205C000020B2
:101520006C000020580000206029002004ED00E03D
:1015300010B500F087FF10480068D0B90F4800F0E0
:101540004BFF0F4800F048FF0C480E4908600C485C
:101550000D490860002210210A2001F0D3FA064943
:1015600008600846006820B108A10348006801F03F
:1015700017F800F091FF10BD88000020282A0020F5
:101580003C2A00208000002084000020546D72510D
:101590000000000010B516E000F054FF0C48C068D1
:1015A000C468201D00F0FBFE0A480068401E09497F
:1015B000086009480068401E0749086000F06CFF99
:1015C000204600F020F8044800680028E4D110BD4F
:1015D000002A0020500000204C00002070B5044676
:1015E0000D46206C70B1216CE0680144E160D4E9E3
:1015F0000210884201D32168E1602846226CE1682C
:10160000FEF74DFF70BD10B50446206B00F062FF81
:10161000204600F05FFF10BD0146084A12681268BC
:101620000AB9012200E000220A600A6822B9034ACE
:101630001268D268106800E0002070478000002027
:1016400030B54FF42053174800F007042CB1C01DEB
:1016500020F00700134C041B1B1B0246124C226097
:101660000024114D6C60D018083820F007000F4C92
:10167000206000240D4D2D686C600C4D2D682C6091
:101680001146441A4C60094C24680C60084D4C68A3
:101690002C60084D4C682C604FF00044064D2C60C7
:1016A00030BD000060010020140000201C0000205C
:1016B00024000020200000203000002000BFFFF7A1
:1016C00069FF064800680128F9D94FF080500449A5
:1016D0000860BFF34F8FBFF36F8FF0E760290020E2
:1016E00004ED00E02DE9F04106460D461746984608
:1016F000069C0DB9246000E02760E66325640121A3
:10170000204601F033FA84F84C80BDE8F0812DE9E1
:10171000F05F82460F4690469B460A9E0C9C4FEA1D
:101720008801A522206BFEF7FFFEA8F10100216BC6
:1017300001EB800929F0070909F0070008B9012029
:1017400000E0002050B900BF202080F31188BFF3D3
:101750004F8FBFF36F8F00BF00BFFEE787B100253B
:1017600007E0795D04F134004155785D00B902E08D
:101770006D1C142DF5D300BF00214720015502E058
:10178000002084F83400052E01D2012000E0002062
:1017900050B900BF202080F31188BFF34F8FBFF3F3
:1017A0006F8F00BF00BFFEE7052E00D30426E66260
:1017B000266500206065201D00F01BFE04F1180066
:1017C00000F017FE2461C6F10500A06164620020EC
:1017D000A06584F85C005A465146484600F032FB4A
:1017E00020600B9808B10B980460BDE8F09F0000E2
:1017F00010B5002407E004EB84010F4A02EB8100DE
:1018000000F0EAFD641C052CF5D30C4800F0E4FD63
:101810000B4800F0E1FD0B4800F0DEFD0A4800F047
:10182000DBFD0A4800F0D8FD044809490860044877
:101830000849086010BD000060290020C42900206C
:10184000D8290020EC290020002A0020142A00209A
:10185000440000204800002010B50146164800E072
:10186000006803688B42FBD30246436813448B42F3
:1018700004D143684C682344436001460A464B68E0
:1018800013440468A34211D10C4C03682468A3429A
:1018900008D04B680468646823444B6003681B6885
:1018A0000B6005E0054B1B680B6001E003680B60F3
:1018B000884200D0016010BD140000201C000020F0
:1018C0002DE9F04104460D4616461F464FF000082C
:1018D00065602461B5420CD8F01BA169884202D32F
:1018E0004FF0010811E0211D0948006800F084FD57
:1018F0000BE0BE4204D2BD4202D34FF0010804E027
:10190000211D0448006800F077FD4046BDE8F081E5
:10191000840000208000002070B5054600F092FD94
:10192000A86B08B9012400E0002400F0B5FD2046B2
:1019300070BD000070B505460E460E480068C068D0
:10194000C468201D00F02BFD94F8280000F004006E
:1019500028B132462946204600F0EEF805E094F81A
:10196000280000F0FE0084F828002046216A8847FD
:1019700070BD00008000002070B586B094E0029831
:10198000002811DA03AE56B900BF202080F3118879
:10199000BFF34F8FBFF36F8F00BF00BFFEE7D6E9E5
:1019A0000020B168904700BF029800287CDB049CAF
:1019B000606908B9012000E0002010B9201D00F086
:1019C000EEFC01A800F0E4F8054602980A2869D266
:1019D000DFE800F06805072E365806082F3700BFED
:1019E00000BF00BF94F8280040F0010084F82800F0
:1019F0000398A269811803462A462046FFF760FF34
:101A0000A8B194F8280000F0040038B10398A26946
:101A100081182A46204600F08FF805E094F8280047
:101A200000F0FE0084F828002046216A88473AE04A
:101A300000BF94F8280000F0FE0084F8280032E08F
:101A400000BF94F8280040F0010084F828000398B3
:101A5000A061A06908B1012000E0002050B900BFDA
:101A6000202080F31188BFF34F8FBFF36F8F00BF2B
:101A700000BFFEE7A06941192B462A462046FFF722
:101A80001FFF10E094F8280000F0020018B920466B
:101A900000F020FD05E094F8280000F0FE0084F836
:101AA000280000E000BF00BF002202A9044800682F
:101AB00001F0CAF800287FF462AF06B070BD0000E4
:101AC00088000020F8B505460C4600F019FF68466E
:101AD00000F05EF80646009820BB44B9B54206D82F
:101AE00001F068FB31462846FFF724FF1CE03CB1BB
:101AF0000E480068006808B9012000E00020044694
:101B0000A91B22460A48006800F07AFD01F052FB4A
:101B100050B94FF0805007490860BFF34F8FBFF3B3
:101B20006F8F01E001F046FBF8BD0000840000204B
:101B30008800002004ED00E070B504460D4616460E
:101B400004E0A06905442046216A8847A06941193C
:101B50002B4632462046FFF7B3FE0028F1D170BD78
:101B600009480068006808B9012000E0002020B1A1
:101B70004FF0FF300549086005E003480068C06881
:101B8000006802490860704744000020700000208F
:101B900070B5044601F094F905460748006885428F
:101BA00004D200F00BF80120206001E0002020604A
:101BB00001480560284670BD9000002070B508E01F
:101BC0000D480068C06804684FF0FF312046FFF7F9
:101BD000B1FE09480068006808B9012000E0002053
:101BE0000028EDD0044805680448006802490860F0
:101BF0000248056070BD00008000002084000020C5
:101C00000E480068401C08B9012000E0002050B9CF
:101C100000BF202080F31188BFF34F8FBFF36F8F79
:101C200000BF00BFFEE700BF202080F31188BFF394
:101C30004F8FBFF36F8F00BF00BFFEE7340000205F
:101C400008B500BF6846FFF7E7FC04462046009948
:101C5000FFF738FFFFF790FEF4E770B5044600F099
:101C6000F1FB94F9455010E0606A08B9012000E0EA
:101C7000002038B904F1240001F00CFA18B100F08A
:101C80009DFD00E003E0681E45B2002DECDC00BFC6
:101C9000FF2084F8450000F0FFFB00F0D3FB94F92F
:101CA000445010E0206908B9012000E0002048B944
:101CB00004F1100001F0EEF908B100F07FFD681E9C
:101CC00045B200E001E0002DECDC00BFFF2084F80D
:101CD000440000F0E1FB70BD2DE9F04104464FF0F7
:101CE000000800F00DFE5148006808B9FFF7A8FC95
:101CF0004F480068204000287ED13CB304F1080022
:101D0000A04223D9083404F0070000B304F0070010
:101D1000C0F108002044A04216D904F00700C0F129
:101D20000800044404F0070008B9012000E0002086
:101D300068B900BF202080F31188BFF34F8FBFF335
:101D40006F8F00BF00BFFEE7002400E00024002CDE
:101D500054D038480068844250D8374E3046056821
:101D600001E02E462D686868A04202D2286800284B
:101D7000F7D12E480068854240D0306800F108084D
:101D8000286830606868001B102819D92F1907F0DF
:101D9000070008B9012000E0002050B900BF202052
:101DA00080F31188BFF34F8FBFF36F8F00BF00BF69
:101DB000FEE76868001B78606C603846FFF74CFDF2
:101DC0001C4968680968081A1A49086008460068CA
:101DD0001A490968884203D2164800681749086002
:101DE000134968680968084368600020286014483F
:101DF0000068401C124900E000E0086001F0DAF9D8
:101E000008F0070008B9012000E0002050B900BF29
:101E1000202080F31188BFF34F8FBFF36F8F00BF77
:101E200000BFFEE74046BDE8F08100001C00002036
:101E3000300000202000002014000020240000209A
:101E400028000020001F4FF080730360001F21F066
:101E500001030360001F054B036014380260001F7C
:101E60006FF002030360203870470000011C000877
:101E70002DE9F04F8CB0074600200A904AA090E868
:101E8000004CC068CDE905BECDF810A007900FF258
:101E90001C1ADAE9000ACDE9020A0FF2101ADAE98F
:101EA000000ACDE9000A44484068C0F381000B9065
:101EB0000B9820B1012804D002283FD103E03F4A0B
:101EC0003EE03E4A3CE03C48406800F4803CBCF5C3
:101ED000803F12D13848C06A00F08048B8F1000F46
:101EE00001D1364C00E0364C3348406800F40039EC
:101EF000B9F5003F02D1334C00E0324C2E48406827
:101F0000C0F383412C48406800F0006008B141F004
:101F100010012948406800F0804008B141F02001DC
:101F20000F2901D2891C06E00F2903D33E2901D8CD
:101F3000491C00E03F2104FB01F201E01F4A00BF01
:101F400000BF1D484068C0F3031504A8465D22FA8F
:101F500006F319484068C0F3022502A8465D23FA3B
:101F600006F0099014484068C0F3C2251DF80560CA
:101F700023FA06F0089037B1012F06D0022F06D0C1
:101F8000032F0AD106E00A9208E00A9306E00998B6
:101F90000A9003E008980A9000E000BF00BF0A988A
:101FA0000CB0BDE8F08F0000000000000000000051
:101FB00001020304060708090010024000127A001B
:101FC000006CDC0200093D00064A02EB9011096832
:101FD00000F01F0301229A401143024B03EB9012C1
:101FE0001160704700100240002000213E4A126834
:101FF00042F480323C4B1A6000BF401C3A4A1268DF
:1020000002F4003111B9B0F5006FF6D1364A12680A
:1020100002F400320AB900BFFEE7334AD26942F047
:102020008052314BDA61314A126842F440422F4B00
:102030001A602D4A52682C4B5A601A4652685A60F0
:102040001A46526842F480625A601A46526822F474
:1020500040325A601A46526842F440325A601A4678
:102060005268234B1A40204B5A601A465268214B43
:102070001A431D4B5A601A46126842F080721A6069
:1020800000BF194A126802F00072002AF9D0174AFC
:10209000126842F48032154B1A6000BF134A52682E
:1020A00002F48032002AF9D0104A126842F4003259
:1020B0000E4B1A6000BF0D4A526802F40032002A2B
:1020C000F9D0094A526822F00302074B5A601A46B7
:1020D000526842F002025A6000BF034A526802F09E
:1020E0000802002AF9D0704700100240007000403A
:1020F000FFFFC3B70000340810B5FFF775FF10BD30
:1021000010B5124800684FF47A71B0FBF1F4601E0C
:10211000B0F1807F01D301200FE0601E4FF0E0217D
:1021200048610F214FF0FF30FEF7F6FB00204FF023
:10213000E021886107200861002008B100BFFEE7A8
:102140000021481EFEF7E8FB10BD000094000020AF
:1021500010B540F21370FFF737FF4FF4806303228E
:1021600018211748FEF7DAFD4FF40063032204211B
:102170001348FEF7D3FD134800F077F8002111480B
:1021800000F005F900210F4800F0D9F84FF4E131D3
:102190000C4800F019F804210A4800F0C8F808219A
:1021A000084800F0ECF80021064800F0B8F80021DB
:1021B000044800F06EF80021024800F072F810BDEB
:1021C00000100140004C00402DE9F04704460D4648
:1021D0000027B846B94600261D49601A8C421CD01B
:1021E00006DC1C48204470B1B0F5806F1FD10FE0B1
:1021F000B0F5806F16D0B0F56C4F18D10320FFF703
:1022000037FE074614E00220FFF732FE07460FE0D4
:102210000220FFF72DFE07460AE00220FFF728FE06
:10222000074605E00220FFF723FE074600E000BF57
:1022300000BF07EB5500B0FBF5F64FF6F07006EA6D
:10224000000806F00F0948EA0900A060BDE8F08721
:10225000004C004000BCFFBF01464868C0F30800C6
:102260007047C1F3080242607047C16841F40051F1
:10227000C160704710B5024602EB9110006801F092
:102280001F040123A340184008B1012010BD002005
:10229000FCE70A460021416921F4007111434161C4
:1022A00070470A460021416921F480711143416160
:1022B000704710B5C1F38912825801F01F04012341
:1022C000A3401A43C1F38913C25010BD10B500EBEF
:1022D00091521268C1F304440123A3409A4300EBD6
:1022E00091531A6010BD70B5024600230024C1F35B
:1022F0008910105801F01F060125B54000EA0503BA
:1023000002EB91500068C1F304460125B54000EA94
:10231000050414B10BB1012070BD0020FCE7C268B8
:1023200022F4C062C260C2680A43C26070470A46B3
:102330000021C16821F004011143C16070470269A6
:1023400022F44052026102690A430261704770B58B
:1023500006460C4600250CE0615D3046FFF781FF24
:1023600000BF07213046FFF785FF0028F9D0681C21
:10237000C5B22046FEF774F8A842EDD870BD0A46F3
:102380000021C16821F008011143C1607047C26893
:1023900022F48052C260C2680A43C260704701469C
:1023A0000A69D1E901309860D1E9010358605068A9
:1023B000884201D188685060002008611068401E82
:1023C000106010687047000002480068401C014916
:1023D000086070470C00002000F1080141604FF0D8
:1023E000FF31816000F10801C160016100210160DD
:1023F000704700210161704710B502460B685C1CF4
:102400000CB9106907E002F1080000E04068446878
:1024100024689C42FAD944684C604C68A16088608A
:1024200041600A611468641C146010BD42684A600F
:1024300093688B60936859609160086103685B1CC6
:102440000360704700BF202080F31188BFF34F8FD7
:10245000BFF36F8F00BF0E480068401C0C49086036
:1024600008460068012812D10A480068C0B208B9BD
:10247000012000E0002050B900BF202080F3118827
:10248000BFF34F8FBFF36F8F00BF00BFFEE77047F2
:102490003400002004ED00E00D48006850B900BF92
:1024A000202080F31188BFF34F8FBFF36F8F00BFE1
:1024B00000BFFEE706480068401E05490860084660
:1024C000006820B9002080F3118800BF00BF70476A
:1024D0003400002070B506463546002E44D0083D35
:1024E0002C46224960680968084008B1012000E0D4
:1024F000002050B900BF202080F31188BFF34F8F18
:10250000BFF36F8F00BF00BFFEE7206808B901204E
:1025100000E0002050B900BF202080F31188BFF3F5
:102520004F8FBFF36F8F00BF00BFFEE70F4960689A
:1025300009680840C0B12068B0B90C4960680968F2
:102540008843606000F0DCF9094960680968084464
:10255000074908602046FFF77FF906480068401CDD
:102560000449086000F026FE70BD00003000002025
:10257000200000202C00002000204FF0E021086106
:102580008861064800684FF47A71B0FBF1F0401E94
:102590004FF0E02148610720086170479400002057
:1025A00030B502460B46002152B900BF202484F307
:1025B0001188BFF34F8FBFF36F8F00BF00BFFEE7DF
:1025C000BBB1002012E00D4C04EBC00464689442DF
:1025D00003D10A4C04EBC0010AE031B9074C54F8AE
:1025E000304014B9054C04EBC001401C0828EAD364
:1025F00000BF09B10B604A6030BD0000502A0020C6
:102600002DE9F04105460E4617462C46FFF71AFF06
:1026100094F94400401C10B9002084F8440094F957
:102620004500401C10B9002084F84500FFF734FF36
:10263000A06B28B93A46314604F1240000F0E0F8D6
:102640002046FFF70AFBBDE8F081000070B50446A4
:102650000025D4B11248006808B9012000E000202C
:1026600050B900BF202080F31188BFF34F8FBFF314
:102670006F8F00BF00BFFEE700F042F90021204647
:10268000FEF780FE00F096FD05463DB94FF0805004
:1026900004490860BFF34F8FBFF36F8F70BD000018
:1026A0007C00002004ED00E070B50546FFF7CAFE8F
:1026B00015B93248006800E028460446201DFFF79F
:1026C0006EFE78B9E06A00EB80002D4951F82000D9
:1026D00040B994F82C10012088402A4909688143A8
:1026E00028480160A06A18B104F11800FFF757FEEE
:1026F00025480068401C244908602048006884423E
:1027000009D1211D2148FFF791FE21480068401C96
:102710001F49086006E01F480068401E1D49086008
:10272000FFF71EFAFFF7B8FE14480068844202D093
:102730002046FEF768FF18480068E8B10F480068B7
:10274000844219D11548006808B9012000E0002032
:1027500050B900BF202080F31188BFF34F8FBFF323
:102760006F8F00BF00BFFEE74FF080500C4908603C
:10277000BFF34F8FBFF36F8F70BD0000400000208C
:1027800060290020580000206C000020002A002052
:102790004C000020500000205C0000207C00002045
:1027A00004ED00E0034909680160034909684160DC
:1027B00070470000680000205400002001200149FB
:1027C000086070476400002070B504460D4654B997
:1027D00000BF202080F31188BFF34F8FBFF36F8FAE
:1027E00000BF00BFFEE70548016818312046FFF72B
:1027F00003FE01212846FEF7C5FD70BD4000002004
:1028000070B504460E46154654B900BF202080F32B
:102810001188BFF34F8FBFF36F8F00BF00BFFEE77C
:1028200060680F490968C8610D49826809680A62D1
:102830000B490968183182685160094909681831E3
:102840008160074909688C622168491C21600DB1CB
:102850004FF0FF3629463046FEF794FD70BD00006C
:10286000400000201CB51E4800210B465A22CDE92D
:1028700000101CA11D4800F0E3FA0446012C02D10F
:1028800000F054FD0446012C15D100BF202080F338
:102890001188BFF34F8FBFF36F8F00BF4FF0FF3032
:1028A000134908600120134908600020124908609C
:1028B00000F074F810E0601C08B1012000E0002076
:1028C00050B900BF202080F31188BFF34F8FBFF3B2
:1028D0006F8F00BF00BFFEE7084800681CBD000006
:1028E0007400002049444C4500000000BD1600085B
:1028F000700000205C0000205400002078000020C0
:1029000002480068401C0149086070477C000020B4
:102910001D48006818B101201C49086032E0002001
:102920001A4908601A480068B0FA80F0C0F11F0127
:1029300001EB8100174A52F8200008B1012000E0A5
:10294000002050B900BF202080F31188BFF34F8FC3
:10295000BFF36F8F00BF00BFFEE701EB81020D4B9D
:1029600003EB820042685268426000F1080243684B
:10297000934202D14268526842604268D268064B74
:102980001A6000BF704700007C0000206400002037
:102990005800002060290020400000201CB552484B
:1029A00000685249884201D0012000E0002050B95F
:1029B00000BF202080F31188BFF34F8FBFF36F8FCC
:1029C00000BF00BFFEE7484800684849491E8842EA
:1029D00001D0012000E0002050B900BF202080F38A
:1029E0001188BFF34F8FBFF36F8F00BF00BFFEE7AB
:1029F0003F49084600780190FF200A4610700846BB
:102A0000007800909DF8000000F0F0009DF8002094
:102A1000904201D1012000E0002050B900BF2020E9
:102A200080F31188BFF34F8FBFF36F8F00BF00BFDC
:102A3000FEE79DF8000000F020002E4A10700720ED
:102A40002D4A106009E02C480068401E2A4A106098
:102A50009DF800004006000E00909DF8000000F078
:102A600080008028EFD024480068C0F107000428C7
:102A700001D1012000E0002050B900BF202080F3E8
:102A80001188BFF34F8FBFF36F8F00BF00BFFEE70A
:102A9000194800680002184A10601046008800F4C7
:102AA000E0601060124A019810700F4820300068F2
:102AB00040F470000C49203108600846006840F07E
:102AC00070400860FFF758FD00200C490860FDF7D2
:102AD000ABFB0B48006840F0404009490860FDF737
:102AE0008FFB00201CBD000000ED00E071C20F4113
:102AF00000E400E0380000203C000020340000200A
:102B000034EF00E02DE9F84305460E461746002451
:102B1000E5B1601EB0FBF5F0B04217D305FB06F03F
:102B200010F1510F12D805FB06F808F15000FFF71D
:102B3000D3F80446B4B1A14609F150093B464A46D0
:102B4000314628460094FEF7CDFD0BE054B900BF96
:102B5000202080F31188BFF34F8FBFF36F8F00BF2A
:102B600000BFFEE72046BDE8F88300002DE9F041F4
:102B700005460E4601272C4654B900BF202080F39D
:102B80001188BFF34F8FBFF36F8F00BF00BFFEE709
:102B9000002C42D0E06B00283FD04FF0FF31E06BBB
:102BA000B1FBF0F0216C884237D3FFF74BFCD4E93E
:102BB0000F12206801FB0200A0600020A0632068C3
:102BC0006060E06B401E226C216800FB0211E16036
:102BD000FF2084F8440084F845009EB9206908B9B4
:102BE000012000E00020A8B904F1100000F052FA22
:102BF00080B14FF0805013490860BFF34F8FBFF38F
:102C00006F8F07E004F11000FFF7E6FB04F12400EA
:102C1000FFF7E2FBFFF740FC00E000270FB10120C7
:102C200000E0002050B900BF202080F31188BFF3DE
:102C30004F8FBFF36F8F00BF00BFFEE73846BDE880
:102C4000F081000004ED00E02DE9F74183B0054676
:102C50000E464FF000082C4654B900BF202080F3E8
:102C60001188BFF34F8FBFF36F8F00BF00BFFEE728
:102C70000EB9206C08B9012000E0002050B900BF57
:102C8000202080F31188BFF34F8FBFF36F8F00BFF9
:102C900000BFFEE700F004F908B9059808B9012063
:102CA00000E0002050B900BF202080F31188BFF35E
:102CB0004F8FBFF36F8F00BF00BFFEE700BFFFF76E
:102CC000C1FBA76BF7B131462046FEF787FC781EA3
:102CD000A063206908B9012000E0002060B904F178
:102CE000100000F0D7F938B14FF080502F4908603C
:102CF000BFF34F8FBFF36F8FFFF7CEFB012006B0FE
:102D0000BDE8F081059818B9FFF7C6FB0020F6E78B
:102D1000B8F1000F04D101A8FFF744FD4FF00108FE
:102D2000FFF7BAFBFFF7ECFDFFF78CFB94F94400CB
:102D3000401C10B9002084F8440094F94500401C60
:102D400010B9002084F84500FFF7A6FB05A901A8EB
:102D500000F02EF8F0B92046FEF7DEFDA0B104F138
:102D600024000599FFF730FD2046FEF776FF00F0BE
:102D700021FA0028A3D14FF080500C490860BFF31E
:102D80004F8FBFF36F8F9AE72046FEF766FF00F084
:102D900011FA94E72046FEF760FF00F00BFA204698
:102DA000FEF7BAFD00288AD00020A8E704ED00E075
:102DB00070B505460C4655B900BF202080F3118838
:102DC000BFF34F8FBFF36F8F00BF00BFFEE754B953
:102DD00000BF202080F31188BFF34F8FBFF36F8FA8
:102DE00000BF00BFFEE7FFF72DFB134802686868CD
:102DF000131A2068401C08B9002619E00F492868FA
:102E00000968884206D06868904203D801260020ED
:102E100020600DE02068984207D92068C01A206021
:102E20002846FFF7BFFC002602E0002020600126B4
:102E3000FFF732FB304670BD5400002068000020D0
:102E40002DE9FF4F85B0804689461746DDE912AB74
:102E5000B800FEF741FF064656B16020FEF73CFF82
:102E600004460CB1266304E03046FFF733FB00E074
:102E700000247CB10020CDE900ABCDE902403A4608
:102E800049464046089BFEF742FC2046FEF7DAFA28
:102E9000012501E04FF0FF35284609B0BDE8F08F6D
:102EA0000549096809B9012005E00449096809B91B
:102EB000022000E0002070475C0000207C00002021
:102EC0000149086870470000540000202DE9F041D6
:102ED0004FF000086448006800287DD1634800680E
:102EE000451C6248056015BB61480068006808B968
:102EF000012000E0002050B900BF202080F311889D
:102F0000BFF34F8FBFF36F8F00BF00BFFEE758487E
:102F10000768584800685649086056480760564890
:102F20000068401C54490860FEF71AFE00BF534871
:102F30000068854277D300BF4D480068006808B933
:102F4000012000E0002020B14FF0FF304B49086025
:102F500068E047480068C068C4686668B54202D245
:102F6000464806605EE06069D4E902128A60D4E9EE
:102F700002214A60211D42688A4201D1E168416014
:102F8000002262610168491E0160A06A98B1A06ACE
:102F9000D4E907128A60D4E907214A6004F11801D4
:102FA00042688A4201D1216A41600022A26201681E
:102FB000491E016000BF94F82C1001208840304960
:102FC000096808432E490860E16A01EB81012D4A36
:102FD00002EB8101486800E03CE0A0608268E260AA
:102FE000211D826851608160E16A01EB8101254AFF
:102FF00002EB81026261E16A01EB8101214A52F830
:103000002110491CE26A02EB82021E4B43F8221097
:103010001D49E06A0968C96A88428DD34FF00108EA
:103020008AE700E000BF18480068C06A00EB800033
:10303000144951F82000012801D94FF00108134824
:10304000006808B9FFF7C0F91148006808B14FF0EF
:10305000010806E00D480068401C0C490860FFF7B5
:10306000B3F94046BDE8F0817C0000205400002008
:10307000440000204800002068000020700000206C
:10308000580000206029002040000020600000203F
:103090006400002070B50346D868C16851B900BF0C
:1030A000202080F31188BFF34F8FBFF36F8F00BFD5
:1030B00000BFFEE7886AD1E90745A560D1E907545A
:1030C000656001F118044568A54201D10C6A4460AD
:1030D00000258D620468641E046030480068002882
:1030E0003DD14869D1E90245A560D1E90254656046
:1030F0000C1D4568A54201D1CC68446000254D6196
:103100000468641E046091F82C400120A040244C07
:1031100024682043224C2060CC6A04EB8404214DB7
:1031200005EB8404606888608568CD600C1D856847
:103130006C608460CC6A04EB84041A4D05EB840552
:103140004D61CC6A04EB8404164D55F82440641C90
:10315000CD6A05EB8505134E46F8254010E0124C6C
:103160006068C86185680D6201F1180485686C604B
:1031700084600D4D8D622C462468641C2C6000BF59
:103180000A4CC86A2468E46AA04204D901220120DA
:10319000074C206000E00022104670BD7C0000203B
:1031A0005800002060290020EC2900204000002069
:1031B0006400002070B5002400265348006850B910
:1031C00000BF202080F31188BFF34F8FBFF36F8FB4
:1031D00000BF00BFFEE7FFF735F94B480068401E0F
:1031E000494908600846006800287DD147480068C2
:1031F000002879D05BE04648C068C468A06AD4E97A
:1032000007128A60D4E907214A6004F11801426874
:103210008A4201D1216A41600022A2620168491EEE
:1032200001606069D4E902128A60D4E902214A602F
:10323000211D42688A4201D1E16841600022626139
:103240000168491E016094F82C1001208840314922
:10325000096808432F490860E16A01EB81012E4AA1
:1032600002EB81014868A0608268E260211D8268EB
:1032700051608160E16A01EB8101274A02EB810222
:103280006261E16A01EB8101234A52F82110491C75
:10329000E26A02EB8202204B43F822101F49E06AE7
:1032A0000968C96A884202D301201D49086018488C
:1032B000006808B9012000E0002000289BD00CB174
:1032C000FEF74EFC1748056865B100BFFFF7FEFD2D
:1032D00010B10120124908606D1E002DF6D10020AA
:1032E000104908600E4800E009E0006838B1012686
:1032F00030070D490860BFF34F8FBFF36F8FFFF7A3
:10330000CBF8304670BD00007C000020500000204B
:10331000EC290020580000206029002040000020F7
:10332000640000206000002004ED00E01CB50024D3
:10333000FEF7FEF80D48006850B10D480421002347
:10334000B422CDE900100BA10C48FFF779FD04462B
:1033500054B900BF202080F31188BFF34F8FBFF313
:103360006F8F00BF00BFFEE720461CBD8800002015
:103370008C000020546D722053766300411C0008BD
:103380004FF04070E1EE100A70470000AC330008C7
:1033900000000020980000006C0100084434000880
:1033A0009800002058320000880100080101000048
:1033B000000000000F0000000000000000010000FD
:1033C00000000000000000000000000000000000FD
:1033D00000000000000000000000000000000000ED
:1033E000AAAAAAAA00000000000000000000000035
:1033F00000000000000000000000000000000000CD
:1034000000000000000000000000000000000000BC
:1034100000000000000000000000000000000000AC
:103420000000000004000000000000000000000098
:10343000000000000000000000000000000000008C
:04344000000E27074C
:04000005080002A14C
:00000001FF
